{
  "contractName": "MultiSigWallet",
  "abi": [
    {
      "inputs": [
        {
          "internalType": "address[]",
          "name": "_members",
          "type": "address[]"
        },
        {
          "internalType": "uint256",
          "name": "_threshold",
          "type": "uint256"
        },
        {
          "internalType": "address",
          "name": "_address",
          "type": "address"
        }
      ],
      "stateMutability": "nonpayable",
      "type": "constructor"
    },
    {
      "anonymous": false,
      "inputs": [
        {
          "indexed": false,
          "internalType": "uint256",
          "name": "batchId",
          "type": "uint256"
        },
        {
          "indexed": false,
          "internalType": "uint256[]",
          "name": "certIds",
          "type": "uint256[]"
        }
      ],
      "name": "BatchAdded",
      "type": "event"
    },
    {
      "anonymous": false,
      "inputs": [
        {
          "indexed": false,
          "internalType": "address",
          "name": "confirmer",
          "type": "address"
        },
        {
          "indexed": false,
          "internalType": "uint256",
          "name": "batchId",
          "type": "uint256"
        }
      ],
      "name": "BatchConfirmed",
      "type": "event"
    },
    {
      "anonymous": false,
      "inputs": [
        {
          "indexed": false,
          "internalType": "address",
          "name": "creator",
          "type": "address"
        },
        {
          "indexed": false,
          "internalType": "uint256",
          "name": "batchId",
          "type": "uint256"
        },
        {
          "indexed": false,
          "internalType": "uint256[]",
          "name": "certIds",
          "type": "uint256[]"
        }
      ],
      "name": "BatchWaitingForConfirmation",
      "type": "event"
    },
    {
      "anonymous": false,
      "inputs": [
        {
          "indexed": false,
          "internalType": "uint256",
          "name": "certId",
          "type": "uint256"
        },
        {
          "indexed": false,
          "internalType": "address",
          "name": "schoolId",
          "type": "address"
        },
        {
          "indexed": false,
          "internalType": "string",
          "name": "studentId",
          "type": "string"
        },
        {
          "indexed": false,
          "internalType": "string",
          "name": "subjectId",
          "type": "string"
        },
        {
          "indexed": false,
          "internalType": "string",
          "name": "semester",
          "type": "string"
        },
        {
          "indexed": false,
          "internalType": "string",
          "name": "grade",
          "type": "string"
        },
        {
          "indexed": false,
          "internalType": "string",
          "name": "gradeType",
          "type": "string"
        },
        {
          "indexed": false,
          "internalType": "uint256",
          "name": "batchId",
          "type": "uint256"
        }
      ],
      "name": "CertAdded",
      "type": "event"
    },
    {
      "anonymous": false,
      "inputs": [
        {
          "indexed": false,
          "internalType": "address",
          "name": "confirmer",
          "type": "address"
        },
        {
          "indexed": false,
          "internalType": "uint256",
          "name": "certId",
          "type": "uint256"
        }
      ],
      "name": "CertConfirmed",
      "type": "event"
    },
    {
      "anonymous": false,
      "inputs": [
        {
          "indexed": false,
          "internalType": "address",
          "name": "creator",
          "type": "address"
        },
        {
          "indexed": false,
          "internalType": "uint256",
          "name": "certId",
          "type": "uint256"
        },
        {
          "indexed": false,
          "internalType": "address",
          "name": "schoolId",
          "type": "address"
        },
        {
          "indexed": false,
          "internalType": "string",
          "name": "studentId",
          "type": "string"
        },
        {
          "indexed": false,
          "internalType": "string",
          "name": "subjectId",
          "type": "string"
        },
        {
          "indexed": false,
          "internalType": "string",
          "name": "semester",
          "type": "string"
        },
        {
          "indexed": false,
          "internalType": "string",
          "name": "grade",
          "type": "string"
        },
        {
          "indexed": false,
          "internalType": "string",
          "name": "gradeType",
          "type": "string"
        },
        {
          "indexed": false,
          "internalType": "uint256",
          "name": "batchId",
          "type": "uint256"
        }
      ],
      "name": "CertWaitingForConfirmation",
      "type": "event"
    },
    {
      "anonymous": false,
      "inputs": [
        {
          "indexed": false,
          "internalType": "address",
          "name": "_holder",
          "type": "address"
        }
      ],
      "name": "CertsAddressInitialized",
      "type": "event"
    },
    {
      "anonymous": false,
      "inputs": [
        {
          "indexed": false,
          "internalType": "address",
          "name": "_from",
          "type": "address"
        },
        {
          "indexed": false,
          "internalType": "uint256",
          "name": "_value",
          "type": "uint256"
        }
      ],
      "name": "Deposit",
      "type": "event"
    },
    {
      "anonymous": false,
      "inputs": [
        {
          "indexed": false,
          "internalType": "uint256",
          "name": "groupId",
          "type": "uint256"
        },
        {
          "indexed": false,
          "internalType": "string",
          "name": "name",
          "type": "string"
        },
        {
          "indexed": false,
          "internalType": "address[]",
          "name": "members",
          "type": "address[]"
        },
        {
          "indexed": false,
          "internalType": "uint256",
          "name": "threshold",
          "type": "uint256"
        }
      ],
      "name": "GroupAdded",
      "type": "event"
    },
    {
      "anonymous": false,
      "inputs": [
        {
          "indexed": false,
          "internalType": "address",
          "name": "confirmer",
          "type": "address"
        },
        {
          "indexed": false,
          "internalType": "uint256",
          "name": "groupId",
          "type": "uint256"
        }
      ],
      "name": "GroupConfirmed",
      "type": "event"
    },
    {
      "anonymous": false,
      "inputs": [
        {
          "indexed": false,
          "internalType": "address",
          "name": "creator",
          "type": "address"
        },
        {
          "indexed": false,
          "internalType": "uint256",
          "name": "groupId",
          "type": "uint256"
        },
        {
          "indexed": false,
          "internalType": "string",
          "name": "name",
          "type": "string"
        },
        {
          "indexed": false,
          "internalType": "address[]",
          "name": "members",
          "type": "address[]"
        },
        {
          "indexed": false,
          "internalType": "uint256",
          "name": "threshold",
          "type": "uint256"
        }
      ],
      "name": "GroupWaitingForConfirmation",
      "type": "event"
    },
    {
      "stateMutability": "payable",
      "type": "fallback",
      "payable": true
    },
    {
      "stateMutability": "payable",
      "type": "receive",
      "payable": true
    },
    {
      "inputs": [
        {
          "internalType": "address",
          "name": "_member",
          "type": "address"
        }
      ],
      "name": "isMember",
      "outputs": [
        {
          "internalType": "bool",
          "name": "",
          "type": "bool"
        }
      ],
      "stateMutability": "view",
      "type": "function",
      "constant": true
    },
    {
      "inputs": [
        {
          "internalType": "address",
          "name": "_member",
          "type": "address"
        },
        {
          "internalType": "uint256",
          "name": "_groupId",
          "type": "uint256"
        }
      ],
      "name": "isMemberOfGroup",
      "outputs": [
        {
          "internalType": "bool",
          "name": "",
          "type": "bool"
        }
      ],
      "stateMutability": "view",
      "type": "function",
      "constant": true
    },
    {
      "inputs": [
        {
          "internalType": "string",
          "name": "_name",
          "type": "string"
        },
        {
          "internalType": "address[]",
          "name": "_members",
          "type": "address[]"
        },
        {
          "internalType": "uint256",
          "name": "_threshold",
          "type": "uint256"
        }
      ],
      "name": "addGroup",
      "outputs": [
        {
          "internalType": "uint256",
          "name": "",
          "type": "uint256"
        }
      ],
      "stateMutability": "nonpayable",
      "type": "function"
    },
    {
      "inputs": [
        {
          "internalType": "uint256",
          "name": "_groupId",
          "type": "uint256"
        }
      ],
      "name": "confirmGroup",
      "outputs": [],
      "stateMutability": "nonpayable",
      "type": "function"
    },
    {
      "inputs": [
        {
          "internalType": "uint256",
          "name": "_groupId",
          "type": "uint256"
        }
      ],
      "name": "getGroup",
      "outputs": [
        {
          "components": [
            {
              "internalType": "uint256",
              "name": "id",
              "type": "uint256"
            },
            {
              "internalType": "string",
              "name": "name",
              "type": "string"
            },
            {
              "internalType": "address[]",
              "name": "members",
              "type": "address[]"
            },
            {
              "internalType": "uint256",
              "name": "threshold",
              "type": "uint256"
            },
            {
              "internalType": "address[]",
              "name": "confirmedBy",
              "type": "address[]"
            }
          ],
          "internalType": "struct MultiSigWallet.Group",
          "name": "",
          "type": "tuple"
        }
      ],
      "stateMutability": "view",
      "type": "function",
      "constant": true
    },
    {
      "inputs": [
        {
          "internalType": "uint256",
          "name": "_groupId",
          "type": "uint256"
        },
        {
          "internalType": "uint256",
          "name": "_certId",
          "type": "uint256"
        }
      ],
      "name": "isCertConfirmed",
      "outputs": [
        {
          "internalType": "bool",
          "name": "",
          "type": "bool"
        }
      ],
      "stateMutability": "view",
      "type": "function",
      "constant": true
    },
    {
      "inputs": [
        {
          "internalType": "uint256",
          "name": "_groupId",
          "type": "uint256"
        },
        {
          "internalType": "uint256",
          "name": "_batchId",
          "type": "uint256"
        }
      ],
      "name": "isBatchConfirmed",
      "outputs": [
        {
          "internalType": "bool",
          "name": "",
          "type": "bool"
        }
      ],
      "stateMutability": "view",
      "type": "function",
      "constant": true
    },
    {
      "inputs": [
        {
          "internalType": "uint256",
          "name": "_groupId",
          "type": "uint256"
        },
        {
          "components": [
            {
              "internalType": "uint256",
              "name": "id",
              "type": "uint256"
            },
            {
              "internalType": "address",
              "name": "schoolId",
              "type": "address"
            },
            {
              "internalType": "string",
              "name": "studentId",
              "type": "string"
            },
            {
              "internalType": "string",
              "name": "subjectId",
              "type": "string"
            },
            {
              "internalType": "address[]",
              "name": "issuers",
              "type": "address[]"
            },
            {
              "internalType": "string",
              "name": "semester",
              "type": "string"
            },
            {
              "internalType": "string",
              "name": "grade",
              "type": "string"
            },
            {
              "internalType": "string",
              "name": "gradeType",
              "type": "string"
            },
            {
              "internalType": "uint256",
              "name": "batchId",
              "type": "uint256"
            }
          ],
          "internalType": "struct Cert",
          "name": "_cert",
          "type": "tuple"
        }
      ],
      "name": "submitCert",
      "outputs": [
        {
          "internalType": "uint256",
          "name": "",
          "type": "uint256"
        }
      ],
      "stateMutability": "nonpayable",
      "type": "function"
    },
    {
      "inputs": [
        {
          "internalType": "uint256",
          "name": "_groupId",
          "type": "uint256"
        },
        {
          "components": [
            {
              "internalType": "uint256",
              "name": "id",
              "type": "uint256"
            },
            {
              "internalType": "address",
              "name": "schoolId",
              "type": "address"
            },
            {
              "internalType": "string",
              "name": "studentId",
              "type": "string"
            },
            {
              "internalType": "string",
              "name": "subjectId",
              "type": "string"
            },
            {
              "internalType": "address[]",
              "name": "issuers",
              "type": "address[]"
            },
            {
              "internalType": "string",
              "name": "semester",
              "type": "string"
            },
            {
              "internalType": "string",
              "name": "grade",
              "type": "string"
            },
            {
              "internalType": "string",
              "name": "gradeType",
              "type": "string"
            },
            {
              "internalType": "uint256",
              "name": "batchId",
              "type": "uint256"
            }
          ],
          "internalType": "struct Cert[]",
          "name": "_certs",
          "type": "tuple[]"
        }
      ],
      "name": "submitBatch",
      "outputs": [
        {
          "internalType": "uint256",
          "name": "",
          "type": "uint256"
        }
      ],
      "stateMutability": "nonpayable",
      "type": "function"
    },
    {
      "inputs": [
        {
          "internalType": "uint256",
          "name": "_groupId",
          "type": "uint256"
        },
        {
          "internalType": "uint256",
          "name": "_certId",
          "type": "uint256"
        }
      ],
      "name": "confirmCert",
      "outputs": [],
      "stateMutability": "nonpayable",
      "type": "function"
    },
    {
      "inputs": [
        {
          "internalType": "uint256",
          "name": "_groupId",
          "type": "uint256"
        },
        {
          "internalType": "uint256",
          "name": "_batchId",
          "type": "uint256"
        }
      ],
      "name": "confirmBatch",
      "outputs": [],
      "stateMutability": "nonpayable",
      "type": "function"
    }
  ],
  "bytecode": "0x60806040526000600a556000600b556000600c553480156200002057600080fd5b5060405162003d4638038062003d468339818101604052810190620000469190620003eb565b60008351116200005557600080fd5b600082116200006357600080fd5b82518211156200007257600080fd5b82600190805190602001906200008a92919062000114565b5081600281905550806000806101000a81548173ffffffffffffffffffffffffffffffffffffffff021916908373ffffffffffffffffffffffffffffffffffffffff1602179055507f973557ec2d03e3586bd36753dbd3caddffb0b61e82e0bd6e49405b100bf5c2d58160405162000103919062000477565b60405180910390a150505062000494565b82805482825590600052602060002090810192821562000190579160200282015b828111156200018f5782518260006101000a81548173ffffffffffffffffffffffffffffffffffffffff021916908373ffffffffffffffffffffffffffffffffffffffff1602179055509160200191906001019062000135565b5b5090506200019f9190620001a3565b5090565b5b80821115620001be576000816000905550600101620001a4565b5090565b6000604051905090565b600080fd5b600080fd5b600080fd5b6000601f19601f8301169050919050565b7f4e487b7100000000000000000000000000000000000000000000000000000000600052604160045260246000fd5b6200022682620001db565b810181811067ffffffffffffffff82111715620002485762000247620001ec565b5b80604052505050565b60006200025d620001c2565b90506200026b82826200021b565b919050565b600067ffffffffffffffff8211156200028e576200028d620001ec565b5b602082029050602081019050919050565b600080fd5b600073ffffffffffffffffffffffffffffffffffffffff82169050919050565b6000620002d182620002a4565b9050919050565b620002e381620002c4565b8114620002ef57600080fd5b50565b6000815190506200030381620002d8565b92915050565b6000620003206200031a8462000270565b62000251565b905080838252602082019050602084028301858111156200034657620003456200029f565b5b835b818110156200037357806200035e8882620002f2565b84526020840193505060208101905062000348565b5050509392505050565b600082601f830112620003955762000394620001d6565b5b8151620003a784826020860162000309565b91505092915050565b6000819050919050565b620003c581620003b0565b8114620003d157600080fd5b50565b600081519050620003e581620003ba565b92915050565b600080600060608486031215620004075762000406620001cc565b5b600084015167ffffffffffffffff811115620004285762000427620001d1565b5b62000436868287016200037d565b93505060206200044986828701620003d4565b92505060406200045c86828701620002f2565b9150509250925092565b6200047181620002c4565b82525050565b60006020820190506200048e600083018462000466565b92915050565b6138a280620004a46000396000f3fe6080604052600436106100a05760003560e01c80635da1546b116100645780635da1546b1461024c578063963c6eff14610289578063a230c524146102b2578063ceb60654146102ef578063dc595dc41461032c578063e52b0bcd14610355576100ea565b8063018c890a1461012f5780632650b0051461016c5780632d381edc146101a95780633e0aad1d146101e657806345dfb29414610223576100ea565b366100ea5760003411156100e8577fe1fffcc4923d04b559f4d29a8bfc6cda04eb5b0d3c460751c2402c5c5cc9109c33346040516100df92919061246f565b60405180910390a15b005b600034111561012d577fe1fffcc4923d04b559f4d29a8bfc6cda04eb5b0d3c460751c2402c5c5cc9109c333460405161012492919061246f565b60405180910390a15b005b34801561013b57600080fd5b50610156600480360381019061015191906124d8565b610392565b6040516101639190612533565b60405180910390f35b34801561017857600080fd5b50610193600480360381019061018e919061257a565b6103cb565b6040516101a09190612533565b60405180910390f35b3480156101b557600080fd5b506101d060048036038101906101cb9190612a3b565b6104ca565b6040516101dd9190612a97565b60405180910390f35b3480156101f257600080fd5b5061020d600480360381019061020891906124d8565b6107ae565b60405161021a9190612533565b60405180910390f35b34801561022f57600080fd5b5061024a60048036038101906102459190612ab2565b6107e7565b005b34801561025857600080fd5b50610273600480360381019061026e9190612adf565b610ac1565b6040516102809190612a97565b60405180910390f35b34801561029557600080fd5b506102b060048036038101906102ab91906124d8565b610cea565b005b3480156102be57600080fd5b506102d960048036038101906102d49190612b6a565b610e51565b6040516102e69190612533565b60405180910390f35b3480156102fb57600080fd5b5061031660048036038101906103119190612ab2565b610f00565b6040516103239190612d70565b60405180910390f35b34801561033857600080fd5b50610353600480360381019061034e91906124d8565b6110fd565b005b34801561036157600080fd5b5061037c60048036038101906103779190612d92565b611348565b6040516103899190612a97565b60405180910390f35b60008061039f848461152f565b905060008151905060036000868152602001908152602001600020600301548110159250505092915050565b600080600360008481526020019081526020016000206002018054905014156103f757600090506104c4565b60005b60036000848152602001908152602001600020600201805490508110156104be578373ffffffffffffffffffffffffffffffffffffffff1660036000858152602001908152602001600020600201828154811061045a57610459612dee565b5b9060005260206000200160009054906101000a900473ffffffffffffffffffffffffffffffffffffffff1673ffffffffffffffffffffffffffffffffffffffff1614156104ab5760019150506104c4565b80806104b690612e4c565b9150506103fa565b50600090505b92915050565b6000826104d6816116af565b6104df57600080fd5b6104e933826103cb565b6104f257600080fd5b6000600c600081548092919061050790612e4c565b919050559050835167ffffffffffffffff811115610528576105276125d0565b5b6040519080825280602002602001820160405280156105565781602001602082028036833780820191505090505b5060076000838152602001908152602001600020908051906020019061057d92919061220a565b5060005b845181101561074c576000600a600081548092919061059f90612e4c565b919050559050808683815181106105b9576105b8612dee565b5b602002602001015160000181815250508582815181106105dc576105db612dee565b5b6020026020010151600460008381526020019081526020016000206000820151816000015560208201518160010160006101000a81548173ffffffffffffffffffffffffffffffffffffffff021916908373ffffffffffffffffffffffffffffffffffffffff1602179055506040820151816002019080519060200190610664929190612257565b506060820151816003019080519060200190610681929190612257565b50608082015181600401908051906020019061069e9291906122dd565b5060a08201518160050190805190602001906106bb929190612257565b5060c08201518160060190805190602001906106d8929190612257565b5060e08201518160070190805190602001906106f5929190612257565b5061010082015181600801559050508060076000858152602001908152602001600020838154811061072a57610729612dee565b5b906000526020600020018190555050808061074490612e4c565b915050610581565b507e75b474fc189ef1fc1858aeb158d4f8dc1923a95996f534f74dbf2497def3c233826007600085815260200190815260200160002060405161079193929190612f94565b60405180910390a16107a385826110fd565b809250505092915050565b6000806107bb8484611791565b905060008151905060036000868152602001908152602001600020600301548110159250505092915050565b6107f033610e51565b6107f957600080fd5b60001515610806826116af565b15151461081257600080fd5b6000600360008381526020019081526020016000206004018054806020026020016040519081016040528092919081815260200182805480156108aa57602002820191906000526020600020905b8160009054906101000a900473ffffffffffffffffffffffffffffffffffffffff1673ffffffffffffffffffffffffffffffffffffffff1681526020019060010190808311610860575b505050505090506000805b8251811015610984573373ffffffffffffffffffffffffffffffffffffffff168382815181106108e8576108e7612dee565b5b602002602001015173ffffffffffffffffffffffffffffffffffffffff16141561091457505050610abe565b600073ffffffffffffffffffffffffffffffffffffffff1683828151811061093f5761093e612dee565b5b602002602001015173ffffffffffffffffffffffffffffffffffffffff161461097157818061096d90612e4c565b9250505b808061097c90612e4c565b9150506108b5565b50336003600085815260200190815260200160002060040182815481106109ae576109ad612dee565b5b9060005260206000200160006101000a81548173ffffffffffffffffffffffffffffffffffffffff021916908373ffffffffffffffffffffffffffffffffffffffff1602179055507f40212d9d89b8b595d3e8beccd8d17412912ffefafb3f51257d1953e11571f9043384604051610a2792919061246f565b60405180910390a1610a38836116af565b15610abb577ff310f10bdd8e03d060d72e9cc4ff7cb137a11f2a168f021b8a77bc8ac577e37a8360036000868152602001908152602001600020600101600360008781526020019081526020016000206002016003600088815260200190815260200160002060030154604051610ab294939291906131c9565b60405180910390a15b50505b50565b6000610acc33610e51565b610ad557600080fd5b6000835111610ae357600080fd5b60008211610af057600080fd5b8251821115610afe57600080fd5b6000600b6000815480929190610b1390612e4c565b91905055905060006040518060a0016040528083815260200187815260200186815260200185815260200160018054905067ffffffffffffffff811115610b5d57610b5c6125d0565b5b604051908082528060200260200182016040528015610b8b5781602001602082028036833780820191505090505b508152509050338160800151600081518110610baa57610ba9612dee565b5b602002602001019073ffffffffffffffffffffffffffffffffffffffff16908173ffffffffffffffffffffffffffffffffffffffff16815250508060036000848152602001908152602001600020600082015181600001556020820151816001019080519060200190610c1e929190612257565b506040820151816002019080519060200190610c3b9291906122dd565b50606082015181600301556080820151816004019080519060200190610c629291906122dd565b509050507f90d08bad2b05057433f149e1886e2bae5284ce4614056027f61429ca768344dc3383888888604051610c9d9594939291906132b3565b60405180910390a17f40212d9d89b8b595d3e8beccd8d17412912ffefafb3f51257d1953e11571f9043383604051610cd692919061246f565b60405180910390a181925050509392505050565b81610cf4816116af565b610cfd57600080fd5b610d0733826103cb565b610d1057600080fd5b6000151560066000858152602001908152602001600020600084815260200190815260200160002060003373ffffffffffffffffffffffffffffffffffffffff1673ffffffffffffffffffffffffffffffffffffffff16815260200190815260200160002060009054906101000a900460ff16151514610d8f57600080fd5b600160066000858152602001908152602001600020600084815260200190815260200160002060003373ffffffffffffffffffffffffffffffffffffffff1673ffffffffffffffffffffffffffffffffffffffff16815260200190815260200160002060006101000a81548160ff0219169083151502179055507fdb4c18c6330144ac69190ae22c093ee67b6b5427be568026f0e999f1903d28623383604051610e3a92919061246f565b60405180910390a1610e4c8383611911565b505050565b600080600090505b600180549050811015610ef5578273ffffffffffffffffffffffffffffffffffffffff1660018281548110610e9157610e90612dee565b5b9060005260206000200160009054906101000a900473ffffffffffffffffffffffffffffffffffffffff1673ffffffffffffffffffffffffffffffffffffffff161415610ee2576001915050610efb565b8080610eed90612e4c565b915050610e59565b50600090505b919050565b610f08612367565b600b548210610f1657600080fd5b600360008381526020019081526020016000206040518060a001604052908160008201548152602001600182018054610f4e90613001565b80601f0160208091040260200160405190810160405280929190818152602001828054610f7a90613001565b8015610fc75780601f10610f9c57610100808354040283529160200191610fc7565b820191906000526020600020905b815481529060010190602001808311610faa57829003601f168201915b505050505081526020016002820180548060200260200160405190810160405280929190818152602001828054801561105557602002820191906000526020600020905b8160009054906101000a900473ffffffffffffffffffffffffffffffffffffffff1673ffffffffffffffffffffffffffffffffffffffff168152602001906001019080831161100b575b5050505050815260200160038201548152602001600482018054806020026020016040519081016040528092919081815260200182805480156110ed57602002820191906000526020600020905b8160009054906101000a900473ffffffffffffffffffffffffffffffffffffffff1673ffffffffffffffffffffffffffffffffffffffff16815260200190600101908083116110a3575b5050505050815250509050919050565b81611107816116af565b61111057600080fd5b61111a33826103cb565b61112357600080fd5b6000151560096000858152602001908152602001600020600084815260200190815260200160002060003373ffffffffffffffffffffffffffffffffffffffff1673ffffffffffffffffffffffffffffffffffffffff16815260200190815260200160002060009054906101000a900460ff161515146111a257600080fd5b600160096000858152602001908152602001600020600084815260200190815260200160002060003373ffffffffffffffffffffffffffffffffffffffff1673ffffffffffffffffffffffffffffffffffffffff16815260200190815260200160002060006101000a81548160ff02191690831515021790555060005b60076000848152602001908152602001600020805490508110156112ff57600060076000858152602001908152602001600020828154811061126457611263612dee565b5b90600052602060002001549050600160066000878152602001908152602001600020600083815260200190815260200160002060003373ffffffffffffffffffffffffffffffffffffffff1673ffffffffffffffffffffffffffffffffffffffff16815260200190815260200160002060006101000a81548160ff0219169083151502179055505080806112f790612e4c565b91505061121f565b507f740142560d3de320dade4304fa969e81237e4cb90e15f367c2f340a464f687c6338360405161133192919061246f565b60405180910390a16113438383611b77565b505050565b600082611354816116af565b61135d57600080fd5b61136733826103cb565b61137057600080fd5b6000600a600081548092919061138590612e4c565b9190505590508084600001818152505083600460008381526020019081526020016000206000820151816000015560208201518160010160006101000a81548173ffffffffffffffffffffffffffffffffffffffff021916908373ffffffffffffffffffffffffffffffffffffffff1602179055506040820151816002019080519060200190611416929190612257565b506060820151816003019080519060200190611433929190612257565b5060808201518160040190805190602001906114509291906122dd565b5060a082015181600501908051906020019061146d929190612257565b5060c082015181600601908051906020019061148a929190612257565b5060e08201518160070190805190602001906114a7929190612257565b5061010082015181600801559050507f52353eab3d7bdd068e96b2b0da50e1ef9fce07fdc0592d55a29e918c701cbc2633828660200151876040015188606001518960a001518a60c001518b60e001518c610100015160405161151299989796959493929190613314565b60405180910390a16115248582610cea565b809250505092915050565b6060806000805b6001805490508110156116a35760096000878152602001908152602001600020600086815260200190815260200160002060006001838154811061157d5761157c612dee565b5b9060005260206000200160009054906101000a900473ffffffffffffffffffffffffffffffffffffffff1673ffffffffffffffffffffffffffffffffffffffff1673ffffffffffffffffffffffffffffffffffffffff16815260200190815260200160002060009054906101000a900460ff1615611690576001818154811061160957611608612dee565b5b9060005260206000200160009054906101000a900473ffffffffffffffffffffffffffffffffffffffff1683838151811061164757611646612dee565b5b602002602001019073ffffffffffffffffffffffffffffffffffffffff16908173ffffffffffffffffffffffffffffffffffffffff1681525050818061168c90612e4c565b9250505b808061169b90612e4c565b915050611536565b50819250505092915050565b6000806000905060005b600360008581526020019081526020016000206004018054905081101561178257600073ffffffffffffffffffffffffffffffffffffffff1660036000868152602001908152602001600020600401828154811061171a57611719612dee565b5b9060005260206000200160009054906101000a900473ffffffffffffffffffffffffffffffffffffffff1673ffffffffffffffffffffffffffffffffffffffff161461176f57818061176b90612e4c565b9250505b808061177a90612e4c565b9150506116b9565b50600254811015915050919050565b6060806000805b600180549050811015611905576006600087815260200190815260200160002060008681526020019081526020016000206000600183815481106117df576117de612dee565b5b9060005260206000200160009054906101000a900473ffffffffffffffffffffffffffffffffffffffff1673ffffffffffffffffffffffffffffffffffffffff1673ffffffffffffffffffffffffffffffffffffffff16815260200190815260200160002060009054906101000a900460ff16156118f2576001818154811061186b5761186a612dee565b5b9060005260206000200160009054906101000a900473ffffffffffffffffffffffffffffffffffffffff168383815181106118a9576118a8612dee565b5b602002602001019073ffffffffffffffffffffffffffffffffffffffff16908173ffffffffffffffffffffffffffffffffffffffff168152505081806118ee90612e4c565b9250505b80806118fd90612e4c565b915050611798565b50819250505092915050565b8161191b816116af565b61192457600080fd5b61192e33826103cb565b61193757600080fd5b600015156005600084815260200190815260200160002060009054906101000a900460ff1615151461196857600080fd5b61197283836107ae565b61197b57600080fd5b6119858383611791565b6004600084815260200190815260200160002060040190805190602001906119ae9291906122dd565b5060008054906101000a900473ffffffffffffffffffffffffffffffffffffffff1673ffffffffffffffffffffffffffffffffffffffff166317ad2566600460008581526020019081526020016000206040518263ffffffff1660e01b8152600401611a1a91906135ad565b600060405180830381600087803b158015611a3457600080fd5b505af1158015611a48573d6000803e3d6000fd5b5050505060016005600084815260200190815260200160002060006101000a81548160ff0219169083151502179055507f012fe3d3ca255015a52721402d10577d852b821c22e21458ffb15d4510e6ee59826004600085815260200190815260200160002060010160009054906101000a900473ffffffffffffffffffffffffffffffffffffffff1660046000868152602001908152602001600020600201600460008781526020019081526020016000206003016004600088815260200190815260200160002060050160046000898152602001908152602001600020600601600460008a8152602001908152602001600020600701600460008b815260200190815260200160002060080154604051611b6a9897969594939291906135cf565b60405180910390a1505050565b81611b81816116af565b611b8a57600080fd5b611b9433826103cb565b611b9d57600080fd5b600015156008600084815260200190815260200160002060009054906101000a900460ff16151514611bce57600080fd5b611bd88383610392565b611be157600080fd5b6000611bed848461152f565b90506000600760008581526020019081526020016000208054905067ffffffffffffffff811115611c2157611c206125d0565b5b604051908082528060200260200182016040528015611c5a57816020015b611c47612396565b815260200190600190039081611c3f5790505b50905060005b6007600086815260200190815260200160002080549050811015612100576000600760008781526020019081526020016000208281548110611ca557611ca4612dee565b5b9060005260206000200154905083600460008381526020019081526020016000206004019080519060200190611cdc9291906122dd565b506004600082815260200190815260200160002060405180610120016040529081600082015481526020016001820160009054906101000a900473ffffffffffffffffffffffffffffffffffffffff1673ffffffffffffffffffffffffffffffffffffffff1673ffffffffffffffffffffffffffffffffffffffff168152602001600282018054611d6c90613001565b80601f0160208091040260200160405190810160405280929190818152602001828054611d9890613001565b8015611de55780601f10611dba57610100808354040283529160200191611de5565b820191906000526020600020905b815481529060010190602001808311611dc857829003601f168201915b50505050508152602001600382018054611dfe90613001565b80601f0160208091040260200160405190810160405280929190818152602001828054611e2a90613001565b8015611e775780601f10611e4c57610100808354040283529160200191611e77565b820191906000526020600020905b815481529060010190602001808311611e5a57829003601f168201915b5050505050815260200160048201805480602002602001604051908101604052809291908181526020018280548015611f0557602002820191906000526020600020905b8160009054906101000a900473ffffffffffffffffffffffffffffffffffffffff1673ffffffffffffffffffffffffffffffffffffffff1681526020019060010190808311611ebb575b50505050508152602001600582018054611f1e90613001565b80601f0160208091040260200160405190810160405280929190818152602001828054611f4a90613001565b8015611f975780601f10611f6c57610100808354040283529160200191611f97565b820191906000526020600020905b815481529060010190602001808311611f7a57829003601f168201915b50505050508152602001600682018054611fb090613001565b80601f0160208091040260200160405190810160405280929190818152602001828054611fdc90613001565b80156120295780601f10611ffe57610100808354040283529160200191612029565b820191906000526020600020905b81548152906001019060200180831161200c57829003601f168201915b5050505050815260200160078201805461204290613001565b80601f016020809104026020016040519081016040528092919081815260200182805461206e90613001565b80156120bb5780601f10612090576101008083540402835291602001916120bb565b820191906000526020600020905b81548152906001019060200180831161209e57829003601f168201915b505050505081526020016008820154815250508383815181106120e1576120e0612dee565b5b60200260200101819052505080806120f890612e4c565b915050611c60565b5060008054906101000a900473ffffffffffffffffffffffffffffffffffffffff1673ffffffffffffffffffffffffffffffffffffffff1663cb6f5efe826040518263ffffffff1660e01b815260040161215a919061381a565b600060405180830381600087803b15801561217457600080fd5b505af1158015612188573d6000803e3d6000fd5b5050505060016008600086815260200190815260200160002060006101000a81548160ff0219169083151502179055507fe47cac1314b5cc61524399d90ee5c2a07026dd8d02aa2293817f2120275d163984600760008781526020019081526020016000206040516121fb92919061383c565b60405180910390a15050505050565b828054828255906000526020600020908101928215612246579160200282015b8281111561224557825182559160200191906001019061222a565b5b50905061225391906123f8565b5090565b82805461226390613001565b90600052602060002090601f01602090048101928261228557600085556122cc565b82601f1061229e57805160ff19168380011785556122cc565b828001600101855582156122cc579182015b828111156122cb5782518255916020019190600101906122b0565b5b5090506122d991906123f8565b5090565b828054828255906000526020600020908101928215612356579160200282015b828111156123555782518260006101000a81548173ffffffffffffffffffffffffffffffffffffffff021916908373ffffffffffffffffffffffffffffffffffffffff160217905550916020019190600101906122fd565b5b50905061236391906123f8565b5090565b6040518060a0016040528060008152602001606081526020016060815260200160008152602001606081525090565b60405180610120016040528060008152602001600073ffffffffffffffffffffffffffffffffffffffff168152602001606081526020016060815260200160608152602001606081526020016060815260200160608152602001600081525090565b5b808211156124115760008160009055506001016123f9565b5090565b600073ffffffffffffffffffffffffffffffffffffffff82169050919050565b600061244082612415565b9050919050565b61245081612435565b82525050565b6000819050919050565b61246981612456565b82525050565b60006040820190506124846000830185612447565b6124916020830184612460565b9392505050565b6000604051905090565b600080fd5b600080fd5b6124b581612456565b81146124c057600080fd5b50565b6000813590506124d2816124ac565b92915050565b600080604083850312156124ef576124ee6124a2565b5b60006124fd858286016124c3565b925050602061250e858286016124c3565b9150509250929050565b60008115159050919050565b61252d81612518565b82525050565b60006020820190506125486000830184612524565b92915050565b61255781612435565b811461256257600080fd5b50565b6000813590506125748161254e565b92915050565b60008060408385031215612591576125906124a2565b5b600061259f85828601612565565b92505060206125b0858286016124c3565b9150509250929050565b600080fd5b6000601f19601f8301169050919050565b7f4e487b7100000000000000000000000000000000000000000000000000000000600052604160045260246000fd5b612608826125bf565b810181811067ffffffffffffffff82111715612627576126266125d0565b5b80604052505050565b600061263a612498565b905061264682826125ff565b919050565b600067ffffffffffffffff821115612666576126656125d0565b5b602082029050602081019050919050565b600080fd5b600080fd5b600080fd5b600080fd5b600067ffffffffffffffff8211156126a6576126a56125d0565b5b6126af826125bf565b9050602081019050919050565b82818337600083830152505050565b60006126de6126d98461268b565b612630565b9050828152602081018484840111156126fa576126f9612686565b5b6127058482856126bc565b509392505050565b600082601f830112612722576127216125ba565b5b81356127328482602086016126cb565b91505092915050565b600067ffffffffffffffff821115612756576127556125d0565b5b602082029050602081019050919050565b600061277a6127758461273b565b612630565b9050808382526020820190506020840283018581111561279d5761279c612677565b5b835b818110156127c657806127b28882612565565b84526020840193505060208101905061279f565b5050509392505050565b600082601f8301126127e5576127e46125ba565b5b81356127f5848260208601612767565b91505092915050565b600061012082840312156128155761281461267c565b5b612820610120612630565b90506000612830848285016124c3565b600083015250602061284484828501612565565b602083015250604082013567ffffffffffffffff81111561286857612867612681565b5b6128748482850161270d565b604083015250606082013567ffffffffffffffff81111561289857612897612681565b5b6128a48482850161270d565b606083015250608082013567ffffffffffffffff8111156128c8576128c7612681565b5b6128d4848285016127d0565b60808301525060a082013567ffffffffffffffff8111156128f8576128f7612681565b5b6129048482850161270d565b60a08301525060c082013567ffffffffffffffff81111561292857612927612681565b5b6129348482850161270d565b60c08301525060e082013567ffffffffffffffff81111561295857612957612681565b5b6129648482850161270d565b60e083015250610100612979848285016124c3565b6101008301525092915050565b60006129996129948461264b565b612630565b905080838252602082019050602084028301858111156129bc576129bb612677565b5b835b81811015612a0357803567ffffffffffffffff8111156129e1576129e06125ba565b5b8086016129ee89826127fe565b855260208501945050506020810190506129be565b5050509392505050565b600082601f830112612a2257612a216125ba565b5b8135612a32848260208601612986565b91505092915050565b60008060408385031215612a5257612a516124a2565b5b6000612a60858286016124c3565b925050602083013567ffffffffffffffff811115612a8157612a806124a7565b5b612a8d85828601612a0d565b9150509250929050565b6000602082019050612aac6000830184612460565b92915050565b600060208284031215612ac857612ac76124a2565b5b6000612ad6848285016124c3565b91505092915050565b600080600060608486031215612af857612af76124a2565b5b600084013567ffffffffffffffff811115612b1657612b156124a7565b5b612b228682870161270d565b935050602084013567ffffffffffffffff811115612b4357612b426124a7565b5b612b4f868287016127d0565b9250506040612b60868287016124c3565b9150509250925092565b600060208284031215612b8057612b7f6124a2565b5b6000612b8e84828501612565565b91505092915050565b612ba081612456565b82525050565b600081519050919050565b600082825260208201905092915050565b60005b83811015612be0578082015181840152602081019050612bc5565b83811115612bef576000848401525b50505050565b6000612c0082612ba6565b612c0a8185612bb1565b9350612c1a818560208601612bc2565b612c23816125bf565b840191505092915050565b600081519050919050565b600082825260208201905092915050565b6000819050602082019050919050565b612c6381612435565b82525050565b6000612c758383612c5a565b60208301905092915050565b6000602082019050919050565b6000612c9982612c2e565b612ca38185612c39565b9350612cae83612c4a565b8060005b83811015612cdf578151612cc68882612c69565b9750612cd183612c81565b925050600181019050612cb2565b5085935050505092915050565b600060a083016000830151612d046000860182612b97565b5060208301518482036020860152612d1c8282612bf5565b91505060408301518482036040860152612d368282612c8e565b9150506060830151612d4b6060860182612b97565b5060808301518482036080860152612d638282612c8e565b9150508091505092915050565b60006020820190508181036000830152612d8a8184612cec565b905092915050565b60008060408385031215612da957612da86124a2565b5b6000612db7858286016124c3565b925050602083013567ffffffffffffffff811115612dd857612dd76124a7565b5b612de4858286016127fe565b9150509250929050565b7f4e487b7100000000000000000000000000000000000000000000000000000000600052603260045260246000fd5b7f4e487b7100000000000000000000000000000000000000000000000000000000600052601160045260246000fd5b6000612e5782612456565b91507fffffffffffffffffffffffffffffffffffffffffffffffffffffffffffffffff821415612e8a57612e89612e1d565b5b600182019050919050565b600081549050919050565b600082825260208201905092915050565b60008190508160005260206000209050919050565b6000612ed28383612b97565b60208301905092915050565b60008160001c9050919050565b6000819050919050565b6000612f08612f0383612ede565b612eeb565b9050919050565b6000612f1b8254612ef5565b9050919050565b6000600182019050919050565b6000612f3a82612e95565b612f448185612ea0565b9350612f4f83612eb1565b8060005b83811015612f8757612f6482612f0f565b612f6e8882612ec6565b9750612f7983612f22565b925050600181019050612f53565b5085935050505092915050565b6000606082019050612fa96000830186612447565b612fb66020830185612460565b8181036040830152612fc88184612f2f565b9050949350505050565b7f4e487b7100000000000000000000000000000000000000000000000000000000600052602260045260246000fd5b6000600282049050600182168061301957607f821691505b6020821081141561302d5761302c612fd2565b5b50919050565b600082825260208201905092915050565b60008190508160005260206000209050919050565b6000815461306681613001565b6130708186613033565b9450600182166000811461308b576001811461309d576130d0565b60ff19831686526020860193506130d0565b6130a685613044565b60005b838110156130c8578154818901526001820191506020810190506130a9565b808801955050505b50505092915050565b600081549050919050565b600082825260208201905092915050565b60008190508160005260206000209050919050565b600073ffffffffffffffffffffffffffffffffffffffff82169050919050565b600061313d61313883612ede565b61310a565b9050919050565b6000613150825461312a565b9050919050565b6000600182019050919050565b600061316f826130d9565b61317981856130e4565b9350613184836130f5565b8060005b838110156131bc5761319982613144565b6131a38882612c69565b97506131ae83613157565b925050600181019050613188565b5085935050505092915050565b60006080820190506131de6000830187612460565b81810360208301526131f08186613059565b905081810360408301526132048185613164565b90506132136060830184612460565b95945050505050565b600061322782612ba6565b6132318185613033565b9350613241818560208601612bc2565b61324a816125bf565b840191505092915050565b600061326082612c2e565b61326a81856130e4565b935061327583612c4a565b8060005b838110156132a657815161328d8882612c69565b975061329883612c81565b925050600181019050613279565b5085935050505092915050565b600060a0820190506132c86000830188612447565b6132d56020830187612460565b81810360408301526132e7818661321c565b905081810360608301526132fb8185613255565b905061330a6080830184612460565b9695505050505050565b60006101208201905061332a600083018c612447565b613337602083018b612460565b613344604083018a612447565b8181036060830152613356818961321c565b9050818103608083015261336a818861321c565b905081810360a083015261337e818761321c565b905081810360c0830152613392818661321c565b905081810360e08301526133a6818561321c565b90506133b6610100830184612460565b9a9950505050505050505050565b600081546133d181613001565b6133db8186612bb1565b945060018216600081146133f657600181146134085761343b565b60ff198316865260208601935061343b565b61341185613044565b60005b8381101561343357815481890152600182019150602081019050613414565b808801955050505b50505092915050565b600061344f826130d9565b6134598185612c39565b9350613464836130f5565b8060005b8381101561349c5761347982613144565b6134838882612c69565b975061348e83613157565b925050600181019050613468565b5085935050505092915050565b6000610120830160008084015490506134c181612ef5565b6134ce6000870182612b97565b50600184015490506134df8161312a565b6134ec6020870182612c5a565b5060028401858303604087015261350383826133c4565b92505060038401858303606087015261351c83826133c4565b9250506004840185830360808701526135358382613444565b9250506005840185830360a087015261354e83826133c4565b9250506006840185830360c087015261356783826133c4565b9250506007840185830360e087015261358083826133c4565b9250506008840154905061359381612ef5565b6135a1610100870182612b97565b50819250505092915050565b600060208201905081810360008301526135c781846134a9565b905092915050565b6000610100820190506135e5600083018b612460565b6135f2602083018a612447565b81810360408301526136048189613059565b905081810360608301526136188188613059565b9050818103608083015261362c8187613059565b905081810360a08301526136408186613059565b905081810360c08301526136548185613059565b905061366360e0830184612460565b9998505050505050505050565b600081519050919050565b600082825260208201905092915050565b6000819050602082019050919050565b6000610120830160008301516136b56000860182612b97565b5060208301516136c86020860182612c5a565b50604083015184820360408601526136e08282612bf5565b915050606083015184820360608601526136fa8282612bf5565b915050608083015184820360808601526137148282612c8e565b91505060a083015184820360a086015261372e8282612bf5565b91505060c083015184820360c08601526137488282612bf5565b91505060e083015184820360e08601526137628282612bf5565b915050610100830151613779610100860182612b97565b508091505092915050565b6000613790838361369c565b905092915050565b6000602082019050919050565b60006137b082613670565b6137ba818561367b565b9350836020820285016137cc8561368c565b8060005b8581101561380857848403895281516137e98582613784565b94506137f483613798565b925060208a019950506001810190506137d0565b50829750879550505050505092915050565b6000602082019050818103600083015261383481846137a5565b905092915050565b60006040820190506138516000830185612460565b81810360208301526138638184612f2f565b9050939250505056fea2646970667358221220e2bc5e9da56b40488bb7e0ae9b374e3900632104cf4c0cfff66cc42f5d81cd2a64736f6c634300080a0033",
  "immutableReferences": {},
  "source": "// SPDX-License-Identifier: MIT\r\npragma solidity >=0.4.22 <0.9.0;\r\n\r\n\r\nstruct Cert {\r\n    uint id;\r\n    address schoolId;\r\n    string studentId;\r\n    string subjectId;\r\n    address[] issuers;\r\n    string semester;\r\n    string grade;\r\n    string gradeType;\r\n    uint batchId;\r\n}\r\n\r\ninterface Certs {\r\n    function addCert(Cert memory _cert) external;\r\n    function addCerts(Cert[] memory _certs) external;\r\n}\r\n\r\ncontract MultiSigWallet {\r\n\r\n    struct Group {\r\n        uint id;\r\n        string name;\r\n        address[] members;\r\n        uint threshold;\r\n        address[] confirmedBy;\r\n    }\r\n\r\n    Certs holder;\r\n    address[] members;\r\n    uint threshold;\r\n\r\n    mapping(uint => Group) groups;\r\n\r\n    mapping(uint => Cert) certs; // certId => cert\r\n    mapping(uint => bool) certExecuted; // certId => executed\r\n    mapping(uint => mapping(uint => mapping(address => bool))) certConfirmed; // groupId => certId => member => confirmed\r\n    \r\n    mapping(uint => uint[]) batches; // batchId => [certIds]\r\n    mapping(uint => bool) batchExecuted; // batchId => executed\r\n    mapping(uint => mapping(uint => mapping(address => bool))) batchConfirmed; // groupId => batchId => member => confirmed\r\n\r\n    uint certCount = 0;\r\n    uint groupCount = 0;\r\n    uint batchCount = 0;\r\n\r\n    function isMember(address _member) public view returns (bool) {\r\n        for (uint i = 0; i < members.length; i++) {\r\n            if (members[i] == _member) {\r\n                return true;\r\n            }\r\n        }\r\n        return false;\r\n    }\r\n    \r\n    function isMemberOfGroup(address _member, uint _groupId) public view returns (bool) {\r\n        if (groups[_groupId].members.length == 0) {\r\n            return false;\r\n        }\r\n        for (uint i = 0; i < groups[_groupId].members.length; i++) {\r\n            if (groups[_groupId].members[i] == _member) {\r\n                return true;\r\n            }\r\n        }\r\n        return false;\r\n    }\r\n\r\n    modifier onlyMembers {\r\n        require(isMember(msg.sender));\r\n        _;\r\n    }\r\n\r\n    modifier onlyGroup(uint _groupId) {\r\n        require(isGroupConfirmed(_groupId));\r\n        require(isMemberOfGroup(msg.sender, _groupId));\r\n        _;\r\n    }\r\n\r\n    event CertsAddressInitialized(address _holder);\r\n\r\n    event GroupWaitingForConfirmation(\r\n        address creator,\r\n        uint groupId,\r\n        string name,\r\n        address[] members,\r\n        uint threshold\r\n    );\r\n\r\n    event GroupConfirmed(\r\n        address confirmer,\r\n        uint groupId\r\n    );\r\n\r\n    event GroupAdded(\r\n        uint groupId,\r\n        string name,\r\n        address[] members,\r\n        uint threshold\r\n    );\r\n\r\n    event CertWaitingForConfirmation(\r\n        address creator,\r\n        uint certId,\r\n        address schoolId,\r\n        string studentId,\r\n        string subjectId,\r\n        string semester,\r\n        string grade,\r\n        string gradeType,\r\n        uint batchId\r\n    );\r\n\r\n    event CertConfirmed(\r\n        address confirmer,\r\n        uint certId\r\n    );\r\n\r\n    event CertAdded(\r\n        uint certId,\r\n        address schoolId,\r\n        string studentId,\r\n        string subjectId,\r\n        string semester,\r\n        string grade,\r\n        string gradeType,\r\n        uint batchId\r\n    );\r\n\r\n    event BatchWaitingForConfirmation(\r\n        address creator,\r\n        uint batchId,\r\n        uint[] certIds\r\n    );\r\n\r\n    event BatchConfirmed(\r\n        address confirmer,\r\n        uint batchId\r\n    );\r\n\r\n    event BatchAdded(\r\n        uint batchId,\r\n        uint[] certIds\r\n    );\r\n\r\n    event Deposit(address _from, uint _value);\r\n\r\n    fallback() external payable {\r\n        if (msg.value > 0) {\r\n            emit Deposit(msg.sender, msg.value);\r\n        }\r\n    }\r\n\r\n    receive() external payable {\r\n        if (msg.value > 0) {\r\n            emit Deposit(msg.sender, msg.value);\r\n        }\r\n    }\r\n\r\n    constructor(address[] memory _members, uint _threshold, address _address) {\r\n        require(_members.length > 0);\r\n        require(_threshold > 0);\r\n        require(_threshold <= _members.length);\r\n        members = _members;\r\n        threshold = _threshold;\r\n        holder = Certs(_address);\r\n        emit CertsAddressInitialized(_address);\r\n    }\r\n\r\n    function isGroupConfirmed(uint _groupId) private view returns (bool) {\r\n        uint confirmedCount = 0;\r\n        for (uint i = 0; i < groups[_groupId].confirmedBy.length; i++) {\r\n            if (groups[_groupId].confirmedBy[i] != address(0)) {\r\n                confirmedCount++;\r\n            }\r\n        }\r\n        return confirmedCount >= threshold;\r\n    }\r\n\r\n    function addGroup(string memory _name, address[] memory _members, uint _threshold) onlyMembers public returns (uint) {\r\n        require(_members.length > 0);\r\n        require(_threshold > 0);\r\n        require(_threshold <= _members.length);\r\n        uint groupId = groupCount++;\r\n        Group memory group = Group({\r\n            id: groupId,\r\n            name: _name,\r\n            members: _members,\r\n            threshold: _threshold,\r\n            confirmedBy: new address[](members.length)\r\n        });\r\n        group.confirmedBy[0] = msg.sender;\r\n        groups[groupId] = group;\r\n        emit GroupWaitingForConfirmation(msg.sender, groupId, _name, _members, _threshold);\r\n        emit GroupConfirmed(msg.sender, groupId);\r\n        return groupId;\r\n    }\r\n\r\n    function confirmGroup(uint _groupId) onlyMembers public {\r\n        require(isGroupConfirmed(_groupId) == false);\r\n        address[] memory groupConfirmers = groups[_groupId].confirmedBy;\r\n        uint confirmedCount = 0;\r\n        for (uint i = 0; i < groupConfirmers.length; i++) {\r\n            if (groupConfirmers[i] == msg.sender) {\r\n                return;\r\n            }\r\n            if (groupConfirmers[i] != address(0)) {\r\n                confirmedCount++;\r\n            }\r\n        }\r\n        groups[_groupId].confirmedBy[confirmedCount] = msg.sender;\r\n        emit GroupConfirmed(msg.sender, _groupId);\r\n        if (isGroupConfirmed(_groupId)) {\r\n            emit GroupAdded(\r\n                _groupId,\r\n                groups[_groupId].name,\r\n                groups[_groupId].members,\r\n                groups[_groupId].threshold\r\n            );\r\n        }\r\n    }\r\n\r\n    function getGroup(uint _groupId) public view returns (Group memory) {\r\n        require(_groupId < groupCount);\r\n        return groups[_groupId];\r\n    }\r\n\r\n    function getCertConfirmers(uint _groupId, uint _certId) private view returns (address[] memory) {\r\n        address[] memory confirmers;\r\n        uint count = 0;\r\n        for (uint i = 0; i < members.length; i++) {\r\n            if (certConfirmed[_groupId][_certId][members[i]]) {\r\n                confirmers[count] = members[i];\r\n                count++;\r\n            }\r\n        }\r\n        return confirmers;\r\n    }\r\n\r\n    function getBatchConfirmers(uint _groupId, uint _batchId) private view returns (address[] memory) {\r\n        address[] memory confirmers;\r\n        uint count = 0;\r\n        for (uint i = 0; i < members.length; i++) {\r\n            if (batchConfirmed[_groupId][_batchId][members[i]]) {\r\n                confirmers[count] = members[i];\r\n                count++;\r\n            }\r\n        }\r\n        return confirmers;\r\n    }\r\n\r\n    function isCertConfirmed(uint _groupId, uint _certId) public view returns (bool) {\r\n        address[] memory confirmers = getCertConfirmers(_groupId, _certId);\r\n        uint count = confirmers.length;\r\n        return count >= groups[_groupId].threshold;\r\n    }\r\n\r\n    function isBatchConfirmed(uint _groupId, uint _batchId) public view returns (bool) {\r\n        address[] memory confirmers = getBatchConfirmers(_groupId, _batchId);\r\n        uint count = confirmers.length;\r\n        return count >= groups[_groupId].threshold;\r\n    }\r\n\r\n    function submitCert(uint _groupId, Cert memory _cert) onlyGroup(_groupId) public returns (uint) {\r\n        uint certId = certCount++;\r\n        _cert.id = certId;\r\n        certs[certId] = _cert;\r\n        emit CertWaitingForConfirmation(\r\n            msg.sender,\r\n            certId,\r\n            _cert.schoolId,\r\n            _cert.studentId,\r\n            _cert.subjectId,\r\n            _cert.semester,\r\n            _cert.grade,\r\n            _cert.gradeType,\r\n            _cert.batchId\r\n        );\r\n        confirmCert(_groupId, certId);\r\n        return certId;\r\n    }\r\n\r\n    function submitBatch(uint _groupId, Cert[] memory _certs) onlyGroup(_groupId) public returns (uint) {\r\n        uint batchId = batchCount++;\r\n        batches[batchId] = new uint[](_certs.length);\r\n        for (uint i = 0; i < _certs.length; i++) {\r\n            uint certId = certCount++;\r\n            _certs[i].id = certId;\r\n            certs[certId] = _certs[i];\r\n            batches[batchId][i] = certId;\r\n        }\r\n        emit BatchWaitingForConfirmation(\r\n            msg.sender,\r\n            batchId,\r\n            batches[batchId]\r\n        );\r\n        confirmBatch(_groupId, batchId);\r\n        return batchId;\r\n    }\r\n\r\n    function confirmCert(uint _groupId, uint _certId) onlyGroup(_groupId) public {\r\n        require(certConfirmed[_groupId][_certId][msg.sender] == false);\r\n        certConfirmed[_groupId][_certId][msg.sender] = true;\r\n        emit CertConfirmed(msg.sender, _certId);\r\n        executeCert(_groupId, _certId);\r\n    }\r\n\r\n    function confirmBatch(uint _groupId, uint _batchId) onlyGroup(_groupId) public {\r\n        require(batchConfirmed[_groupId][_batchId][msg.sender] == false);\r\n        batchConfirmed[_groupId][_batchId][msg.sender] = true;\r\n        for (uint i = 0; i < batches[_batchId].length; i++) {\r\n            uint certId = batches[_batchId][i];\r\n            certConfirmed[_groupId][certId][msg.sender] = true;\r\n        }\r\n        emit BatchConfirmed(msg.sender, _batchId);\r\n        executeBatch(_groupId, _batchId);\r\n    }\r\n\r\n    function executeCert(uint _groupId, uint _certId) onlyGroup(_groupId) private {\r\n        require(certExecuted[_certId] == false);\r\n        require(isCertConfirmed(_groupId, _certId));\r\n        certs[_certId].issuers = getCertConfirmers(_groupId, _certId);\r\n        holder.addCert(certs[_certId]);\r\n        certExecuted[_certId] = true;\r\n        emit CertAdded(\r\n            _certId,\r\n            certs[_certId].schoolId,\r\n            certs[_certId].studentId,\r\n            certs[_certId].subjectId,\r\n            certs[_certId].semester,\r\n            certs[_certId].grade,\r\n            certs[_certId].gradeType,\r\n            certs[_certId].batchId\r\n        );\r\n    }\r\n\r\n    function executeBatch(uint _groupId, uint _batchId) onlyGroup(_groupId) private {\r\n        require(batchExecuted[_batchId] == false);\r\n        require(isBatchConfirmed(_groupId, _batchId));\r\n        address[] memory confirmers = getBatchConfirmers(_groupId, _batchId);\r\n        Cert[] memory batchCerts = new Cert[](batches[_batchId].length);\r\n        for (uint i = 0; i < batches[_batchId].length; i++) {\r\n            uint certId = batches[_batchId][i];\r\n            certs[certId].issuers = confirmers;\r\n            batchCerts[i] = certs[certId];\r\n        }\r\n        holder.addCerts(batchCerts);\r\n        batchExecuted[_batchId] = true;\r\n        emit BatchAdded(\r\n            _batchId,\r\n            batches[_batchId]\r\n        );\r\n    }\r\n}",
  "sourcePath": "/home/vi/code/tuancerts/.truffle/wallet/contracts/MultiSigWallet.sol",
  "compiler": {
    "name": "solc",
    "version": "0.8.10+commit.fc410830.Emscripten.clang"
  },
  "schemaVersion": "3.4.3",
  "updatedAt": "2022-01-01T09:24:46.895Z",
  "networkType": "ethereum",
  "devdoc": {
    "kind": "dev",
    "methods": {},
    "version": 1
  },
  "userdoc": {
    "kind": "user",
    "methods": {},
    "version": 1
  }
}